{"abi":[{"type":"constructor","inputs":[{"name":"_deployData","type":"bytes","internalType":"bytes"}],"stateMutability":"nonpayable"},{"type":"function","name":"DOMAIN_SEPARATOR","inputs":[],"outputs":[{"name":"","type":"bytes32","internalType":"bytes32"}],"stateMutability":"view"},{"type":"function","name":"allowance","inputs":[{"name":"","type":"address","internalType":"address"},{"name":"","type":"address","internalType":"address"}],"outputs":[{"name":"","type":"uint256","internalType":"uint256"}],"stateMutability":"view"},{"type":"function","name":"approve","inputs":[{"name":"_spender","type":"address","internalType":"address"},{"name":"_amount","type":"uint256","internalType":"uint256"}],"outputs":[{"name":"","type":"bool","internalType":"bool"}],"stateMutability":"nonpayable"},{"type":"function","name":"balanceOf","inputs":[{"name":"","type":"address","internalType":"address"}],"outputs":[{"name":"","type":"uint256","internalType":"uint256"}],"stateMutability":"view"},{"type":"function","name":"burn","inputs":[{"name":"_withdrawMode","type":"uint8","internalType":"uint8"},{"name":"_to","type":"address","internalType":"address"},{"name":"_sender","type":"address","internalType":"address"},{"name":"_callback","type":"address","internalType":"address"},{"name":"_callbackData","type":"bytes","internalType":"bytes"}],"outputs":[{"name":"_amounts","type":"tuple[]","internalType":"struct IPool.TokenAmount[]","components":[{"name":"token","type":"address","internalType":"address"},{"name":"amount","type":"uint256","internalType":"uint256"}]}],"stateMutability":"nonpayable"},{"type":"function","name":"burnSingle","inputs":[{"name":"_withdrawMode","type":"uint8","internalType":"uint8"},{"name":"_tokenOut","type":"address","internalType":"address"},{"name":"_to","type":"address","internalType":"address"},{"name":"_sender","type":"address","internalType":"address"},{"name":"_callback","type":"address","internalType":"address"},{"name":"_callbackData","type":"bytes","internalType":"bytes"}],"outputs":[{"name":"_tokenAmount","type":"tuple","internalType":"struct IPool.TokenAmount","components":[{"name":"token","type":"address","internalType":"address"},{"name":"amount","type":"uint256","internalType":"uint256"}]}],"stateMutability":"nonpayable"},{"type":"function","name":"decimals","inputs":[],"outputs":[{"name":"","type":"uint8","internalType":"uint8"}],"stateMutability":"view"},{"type":"function","name":"getAmountIn","inputs":[{"name":"_tokenOut","type":"address","internalType":"address"},{"name":"_amountOut","type":"uint256","internalType":"uint256"},{"name":"_sender","type":"address","internalType":"address"}],"outputs":[{"name":"_amountIn","type":"uint256","internalType":"uint256"}],"stateMutability":"view"},{"type":"function","name":"getAmountOut","inputs":[{"name":"_tokenIn","type":"address","internalType":"address"},{"name":"_amountIn","type":"uint256","internalType":"uint256"},{"name":"_sender","type":"address","internalType":"address"}],"outputs":[{"name":"_amountOut","type":"uint256","internalType":"uint256"}],"stateMutability":"view"},{"type":"function","name":"getAssets","inputs":[],"outputs":[{"name":"assets","type":"address[]","internalType":"address[]"}],"stateMutability":"view"},{"type":"function","name":"getProtocolFee","inputs":[],"outputs":[{"name":"_protocolFee","type":"uint24","internalType":"uint24"}],"stateMutability":"view"},{"type":"function","name":"getReserves","inputs":[],"outputs":[{"name":"_reserve0","type":"uint256","internalType":"uint256"},{"name":"_reserve1","type":"uint256","internalType":"uint256"}],"stateMutability":"view"},{"type":"function","name":"getSwapFee","inputs":[{"name":"_sender","type":"address","internalType":"address"},{"name":"_tokenIn","type":"address","internalType":"address"},{"name":"_tokenOut","type":"address","internalType":"address"},{"name":"data","type":"bytes","internalType":"bytes"}],"outputs":[{"name":"_swapFee","type":"uint24","internalType":"uint24"}],"stateMutability":"view"},{"type":"function","name":"invariantLast","inputs":[],"outputs":[{"name":"","type":"uint256","internalType":"uint256"}],"stateMutability":"view"},{"type":"function","name":"master","inputs":[],"outputs":[{"name":"","type":"address","internalType":"address"}],"stateMutability":"view"},{"type":"function","name":"mint","inputs":[{"name":"_to","type":"address","internalType":"address"},{"name":"_sender","type":"address","internalType":"address"},{"name":"_callback","type":"address","internalType":"address"},{"name":"_callbackData","type":"bytes","internalType":"bytes"}],"outputs":[{"name":"","type":"uint256","internalType":"uint256"}],"stateMutability":"nonpayable"},{"type":"function","name":"name","inputs":[],"outputs":[{"name":"","type":"string","internalType":"string"}],"stateMutability":"view"},{"type":"function","name":"nonces","inputs":[{"name":"","type":"address","internalType":"address"}],"outputs":[{"name":"","type":"uint256","internalType":"uint256"}],"stateMutability":"view"},{"type":"function","name":"permit","inputs":[{"name":"_owner","type":"address","internalType":"address"},{"name":"_spender","type":"address","internalType":"address"},{"name":"_amount","type":"uint256","internalType":"uint256"},{"name":"_deadline","type":"uint256","internalType":"uint256"},{"name":"_v","type":"uint8","internalType":"uint8"},{"name":"_r","type":"bytes32","internalType":"bytes32"},{"name":"_s","type":"bytes32","internalType":"bytes32"}],"outputs":[],"stateMutability":"nonpayable"},{"type":"function","name":"permit2","inputs":[{"name":"_owner","type":"address","internalType":"address"},{"name":"_spender","type":"address","internalType":"address"},{"name":"_amount","type":"uint256","internalType":"uint256"},{"name":"_deadline","type":"uint256","internalType":"uint256"},{"name":"_signature","type":"bytes","internalType":"bytes"}],"outputs":[],"stateMutability":"nonpayable"},{"type":"function","name":"poolType","inputs":[],"outputs":[{"name":"","type":"uint16","internalType":"uint16"}],"stateMutability":"view"},{"type":"function","name":"reserve0","inputs":[],"outputs":[{"name":"","type":"uint256","internalType":"uint256"}],"stateMutability":"view"},{"type":"function","name":"reserve1","inputs":[],"outputs":[{"name":"","type":"uint256","internalType":"uint256"}],"stateMutability":"view"},{"type":"function","name":"supportsInterface","inputs":[{"name":"interfaceID","type":"bytes4","internalType":"bytes4"}],"outputs":[{"name":"","type":"bool","internalType":"bool"}],"stateMutability":"pure"},{"type":"function","name":"swap","inputs":[{"name":"_withdrawMode","type":"uint8","internalType":"uint8"},{"name":"_tokenIn","type":"address","internalType":"address"},{"name":"_to","type":"address","internalType":"address"},{"name":"_sender","type":"address","internalType":"address"},{"name":"_callback","type":"address","internalType":"address"},{"name":"_callbackData","type":"bytes","internalType":"bytes"}],"outputs":[{"name":"_tokenAmount","type":"tuple","internalType":"struct IPool.TokenAmount","components":[{"name":"token","type":"address","internalType":"address"},{"name":"amount","type":"uint256","internalType":"uint256"}]}],"stateMutability":"nonpayable"},{"type":"function","name":"symbol","inputs":[],"outputs":[{"name":"","type":"string","internalType":"string"}],"stateMutability":"view"},{"type":"function","name":"token0","inputs":[],"outputs":[{"name":"","type":"address","internalType":"address"}],"stateMutability":"view"},{"type":"function","name":"token1","inputs":[],"outputs":[{"name":"","type":"address","internalType":"address"}],"stateMutability":"view"},{"type":"function","name":"totalSupply","inputs":[],"outputs":[{"name":"","type":"uint256","internalType":"uint256"}],"stateMutability":"view"},{"type":"function","name":"transfer","inputs":[{"name":"_to","type":"address","internalType":"address"},{"name":"_amount","type":"uint256","internalType":"uint256"}],"outputs":[{"name":"","type":"bool","internalType":"bool"}],"stateMutability":"nonpayable"},{"type":"function","name":"transferFrom","inputs":[{"name":"_from","type":"address","internalType":"address"},{"name":"_to","type":"address","internalType":"address"},{"name":"_amount","type":"uint256","internalType":"uint256"}],"outputs":[{"name":"","type":"bool","internalType":"bool"}],"stateMutability":"nonpayable"},{"type":"function","name":"vault","inputs":[],"outputs":[{"name":"","type":"address","internalType":"address"}],"stateMutability":"view"},{"type":"event","name":"Approval","inputs":[{"name":"owner","type":"address","indexed":true,"internalType":"address"},{"name":"spender","type":"address","indexed":true,"internalType":"address"},{"name":"value","type":"uint256","indexed":false,"internalType":"uint256"}],"anonymous":false},{"type":"event","name":"Burn","inputs":[{"name":"sender","type":"address","indexed":true,"internalType":"address"},{"name":"amount0","type":"uint256","indexed":false,"internalType":"uint256"},{"name":"amount1","type":"uint256","indexed":false,"internalType":"uint256"},{"name":"liquidity","type":"uint256","indexed":false,"internalType":"uint256"},{"name":"to","type":"address","indexed":true,"internalType":"address"}],"anonymous":false},{"type":"event","name":"Mint","inputs":[{"name":"sender","type":"address","indexed":true,"internalType":"address"},{"name":"amount0","type":"uint256","indexed":false,"internalType":"uint256"},{"name":"amount1","type":"uint256","indexed":false,"internalType":"uint256"},{"name":"liquidity","type":"uint256","indexed":false,"internalType":"uint256"},{"name":"to","type":"address","indexed":true,"internalType":"address"}],"anonymous":false},{"type":"event","name":"Swap","inputs":[{"name":"sender","type":"address","indexed":true,"internalType":"address"},{"name":"amount0In","type":"uint256","indexed":false,"internalType":"uint256"},{"name":"amount1In","type":"uint256","indexed":false,"internalType":"uint256"},{"name":"amount0Out","type":"uint256","indexed":false,"internalType":"uint256"},{"name":"amount1Out","type":"uint256","indexed":false,"internalType":"uint256"},{"name":"to","type":"address","indexed":true,"internalType":"address"}],"anonymous":false},{"type":"event","name":"Sync","inputs":[{"name":"reserve0","type":"uint256","indexed":false,"internalType":"uint256"},{"name":"reserve1","type":"uint256","indexed":false,"internalType":"uint256"}],"anonymous":false},{"type":"event","name":"Transfer","inputs":[{"name":"from","type":"address","indexed":true,"internalType":"address"},{"name":"to","type":"address","indexed":true,"internalType":"address"},{"name":"value","type":"uint256","indexed":false,"internalType":"uint256"}],"anonymous":false},{"type":"error","name":"Expired","inputs":[]},{"type":"error","name":"InsufficientLiquidityMinted","inputs":[]},{"type":"error","name":"InvalidSignature","inputs":[]},{"type":"error","name":"Overflow","inputs":[]},{"type":"error","name":"ReentrancyGuardReentrantCall","inputs":[]}],"bytecode":{"object":"0x6101206040523461017f5761001a61001561028a565b610441565b60405161423f610ae5823960805181610727015260a051818181610e70015281816122cb01528181612b410152818161384c0152613a30015260c051818181610ea9015281816135bb0152818161365701528181613f6f0152613ff8015260e0518181816105ae015281816114fd015281816118b701528181611a0a01528181611d4a01528181611d9d0152818161209f015281816120ef015281816126030152818161263f015281816128fe015281816129df01528181612aa901528181612b1001528181612e1301528181612f2e01528181613199015281816131f501526135e9015261010051818181610d59015281816114dc015281816118d801528181611a5001528181611d7c01528181611dd9015281816120c0015281816125b0015281816125e2015281816126e40152818161291f0152818161294e01528181612ad801528181612e6101528181612f81015281816131c80152613685015261423f90f35b600080fd5b634e487b7160e01b600052604160045260246000fd5b90601f01601f191681019081106001600160401b038211176101bb57604052565b610184565b906101d46101cd60405190565b928361019a565b565b6001600160401b0381116101bb57602090601f01601f19160190565b0190565b60005b8381106102095750506000910152565b81810151838201526020016101f9565b9092919261022e610229826101d6565b6101c0565b9381855260208501908284011161017f576101d4926101f6565b9080601f8301121561017f57815161026292602001610219565b90565b9060208282031261017f5781516001600160401b03811161017f576102629201610248565b610262614d248038038061029d816101c0565b928339810190610265565b6001600160a01b031690565b6001600160a01b0381160361017f57565b905051906101d4826102b4565b919060408382031261017f57610262906102ec81856102c5565b936020016102c5565b610262906102a8906001600160a01b031682565b610262906102f5565b61026290610309565b9060208282031261017f57610262916102c5565b6040513d6000823e3d90fd5b90610348610229836101d6565b918252565b610357601361033b565b7f56616e677561726420436c6173736963204c5000000000000000000000000000602082015290565b61026261034d565b610392600461033b565b63063564c560e41b602082015290565b610262610388565b6101f26103c2926020926103bc815190565b94859290565b938491016101f6565b916103f26103f8610405936103f2610262966802b30b733bab0b932160bd1b815260090190565b906103aa565b602f60f81b815260010190565b6a020436c6173736963204c560ac1b8152600b0190565b916103f26103f861026294610430946103aa565b6402063564c560dc1b815260050190565b61047561046861046f92610453610632565b602061045d825190565b8183010191016102d2565b9290610312565b91610312565b6104a3602061048b61048633610312565b610312565b63ee97f7f39061049a60405190565b93849260e01b90565b825260049082905afa9081156105ce576104d26104866104e1936020936000916105d3575b508060a052610312565b63fbfa77cf9061049a60405190565b825260049082905afa9283156105ce5761051c93610513926000916105a0575b5060c05280836101005260e0526106bf565b929092916106bf565b929081610598575b50156105835761057d6101d49261026261056484610262849161055561054960405190565b938492602084016103cb565b6020820181038252038261019a565b9361055561057160405190565b9384926020840161041c565b90610909565b50506101d4610590610380565b61057d6103a2565b905038610524565b6105c1915060203d81116105c7575b6105b9818361019a565b81019061031b565b38610501565b503d6105af565b61032f565b6105ea9150843d81116105c7576105b9818361019a565b386104c8565b6102626102626102629290565b61026260016105f0565b90600019905b9181191691161790565b9061062761026261062e926105f0565b8254610607565b9055565b61063a61065f565b6101d46106456105fd565b6008610617565b6106596102626102629290565b60ff1690565b610669601261064c565b608052565b61068161067b6102629290565b60e01b90565b6001600160e01b03191690565b3d156106a85761069d3d61033b565b903d6000602084013e565b606090565b610262600061033b565b6102626106ad565b600080916106cb600090565b5060046106fb6106de6395d89b4161066e565b6105556106ea60405190565b938492602084019081520160000190565b602081019051915afa9061070d61068e565b911561072e576102626001926020610723825190565b818301019101610265565b600091506102626106b7565b634e487b7160e01b600052602260045260246000fd5b9060016002830492168015610770575b602083101461076b57565b61073a565b91607f1691610760565b9160001960089290920291821b911b61060d565b919061079f61026261062e936105f0565b90835461077a565b6101d49160009161078e565b8181106107be575050565b806107cc60006001936107a7565b016107b3565b9190601f81116107e157505050565b6107f36101d493600052602060002090565b906020601f840181900483019310610815575b6020601f9091010401906107b3565b9091508190610806565b90610828815190565b906001600160401b0382116101bb5761084b826108458554610750565b856107d2565b602090601f83116001146108865761062e92916000918361087b575b5050600019600883021c1916906002021790565b015190503880610867565b601f1983169161089b85600052602060002090565b9260005b8181106108d9575091600293918560019694106108c0575b50505002019055565b01516000196008601f8516021c191690553880806108b7565b9193602060018192878701518155019501920161089f565b906101d49161081f565b9061062761026261062e9290565b9061091861091f9260046108f1565b60056108f1565b61092a466006610617565b6101d4610935610a4f565b60076108fb565b8054600093929161095961094f83610750565b8085529360200190565b91600181169081156109ab575060011461097257505050565b6109859192939450600052602060002090565b916000925b8184106109975750500190565b80548484015260209093019260010161098a565b92949550505060ff1916825215156020020190565b906102629161093c565b906101d46109e4926109db60405190565b938480926109c0565b038361019a565b610262906109ca565b6109fd906105f0565b9052565b909594926101d494610a39610a4092610a2f608096610a2860a088019c60008901906109f4565b6020870152565b60408501906109f4565b6060830152565b01906001600160a01b03169052565b7f8b73c3c69bb8fe3d512ecc4cf759cc79239f7b179b0ffacaa9a75d522b39400f610ad5610a7d60046109eb565b610a8f610a88825190565b9160200190565b20916105557fc89efdaa54c0f20c7adf612882df0950f5a951637e0307cdcb4c672f298b8bc646610abf30610312565b91610ac960405190565b96879560208701610a01565b610ae0610a88825190565b209056fe6080604052600436101561001257600080fd5b60003560e01c806301ffc9a71461021257806306fdde031461020d57806307f293f7146102085780630902f1ac14610203578063095ea7b3146101fe5780630dfe1681146101f957806318160ddd146101f457806323b872dd146101ef5780632c0198cc146101ea578063313ce567146101e55780633627c888146101e05780633644e515146101db578063443cb4bc146101d65780635a76f25e146101d157806367e4ac2c146101cc5780636b905f24146101c757806370a08231146101c25780637ecebe00146101bd5780638b4c5470146101b857806393a24904146101b357806395d89b41146101ae578063a287c795146101a9578063a5a41031146101a4578063a9059cbb1461019f578063b1dd61b61461019a578063bfb7e74a14610195578063d21220a714610190578063d505accf1461018b578063dd62ed3e14610186578063ee97f7f314610181578063fbfa77cf1461017c5763ff9c8ac60361022a57610ecd565b610e94565b610e5b565b610e3f565b610de3565b610d44565b610d16565b610c41565b610bff565b610be4565b610bc8565b610b7d565b610b4f565b610b1a565b610a28565b6109fb565b610964565b610898565b61080d565b6107e6565b6107bf565b6107a0565b610712565b6106ee565b61063e565b6105f3565b610599565b61057d565b6104f1565b6104ae565b610465565b610259565b6001600160e01b031981165b0361022a57565b600080fd5b9050359061023c82610217565b565b9060208282031261022a576102529161022f565b90565b9052565b3461022a5761028661027461026f36600461023e565b610f0f565b60405191829182901515815260200190565b0390f35b600091031261022a57565b634e487b7160e01b600052600060045260246000fd5b634e487b7160e01b600052602260045260246000fd5b90600160028304921680156102e1575b60208310146102dc57565b6102ab565b91607f16916102d1565b805460009392916103086102fe836102c1565b8085529360200190565b916001811690811561035a575060011461032157505050565b6103349192939450600052602060002090565b916000925b8184106103465750500190565b805484840152602090930192600101610339565b92949550505060ff1916825215156020020190565b90610252916102eb565b634e487b7160e01b600052604160045260246000fd5b90601f01601f1916810190811067ffffffffffffffff8211176103b157604052565b610379565b9061023c6103d0926103c760405190565b9384809261036f565b038361038f565b906000106103e857610252906103b6565b610295565b610252600060046103d7565b60005b83811061040c5750506000910152565b81810151838201526020016103fc565b61043d61044660209361045093610431815190565b80835293849260200190565b958691016103f9565b601f01601f191690565b0190565b60208082526102529291019061041c565b3461022a5761047536600461028a565b6102866104806103ed565b60405191829182610454565b610252916008021c81565b90610252915461048c565b6102526000600b610497565b3461022a576104be36600461028a565b6102866104c96104a2565b6040515b9182918290815260200190565b90815260408101929161023c9160200152565b0152565b3461022a5761050136600461028a565b610509610f89565b9061028661051660405190565b928392836104da565b6001600160a01b031690565b6001600160a01b038116610223565b9050359061023c8261052b565b80610223565b9050359061023c82610547565b919060408382031261022a5761025290610574818561053a565b9360200161054d565b3461022a5761028661027461059336600461055a565b90610f9d565b3461022a576105a936600461028a565b6102867f00000000000000000000000000000000000000000000000000000000000000005b604051918291826001600160a01b03909116815260200190565b610252600080610497565b3461022a5761060336600461028a565b6102866104c96105e8565b909160608284031261022a57610252610627848461053a565b93610635816020860161053a565b9360400161054d565b3461022a5761028661027461065436600461060e565b91610ff6565b909182601f8301121561022a5781359167ffffffffffffffff831161022a57602001926001830284011161022a57565b91909160a08184031261022a576106a1838261053a565b926106af816020840161053a565b926106bd826040850161054d565b926106cb836060830161054d565b92608082013567ffffffffffffffff811161022a576106ea920161065a565b9091565b3461022a5761070d61070136600461068a565b94939093929192611150565b604051005b3461022a5761072236600461028a565b6040517f000000000000000000000000000000000000000000000000000000000000000060ff168152602090f35b9060808282031261022a57610765818361053a565b92610773826020850161053a565b92610781836040830161053a565b92606082013567ffffffffffffffff811161022a576106ea920161065a565b3461022a576102866104c96107b6366004610750565b93929092611932565b3461022a576107cf36600461028a565b6102866104c9611941565b61025260006009610497565b3461022a576107f636600461028a565b6102866104c96107da565b6102526000600a610497565b3461022a5761081d36600461028a565b6102866104c9610801565b90610848610841610837845190565b8084529260200190565b9260200190565b9060005b8181106108595750505090565b90919261087f61087860019286516001600160a01b0316815260200190565b9460200190565b92910161084c565b602080825261025292910190610828565b3461022a576108a836600461028a565b6102866108b36119f2565b60405191829182610887565b60ff8116610223565b9050359061023c826108bf565b9160c08383031261022a576108ea82846108c8565b926108f8836020830161053a565b92610906816040840161053a565b92610914826060850161053a565b92610922836080830161053a565b9260a082013567ffffffffffffffff811161022a576106ea920161065a565b60408101929161023c919080516001600160a01b03168252602090810151910152565b3461022a5761028661098661097a3660046108d5565b95949094939193612202565b60405191829182610941565b9060208282031261022a576102529161053a565b6102529061051f906001600160a01b031682565b610252906109a6565b610252906109ba565b906109d6906109c3565b600052602052604060002090565b610252906109f66001916000926109cc565b610497565b3461022a576102866104c9610a11366004610992565b6109e4565b610252906109f66003916000926109cc565b3461022a576102866104c9610a3e366004610992565b610a16565b9061023c610a5060405190565b928361038f565b67ffffffffffffffff81116103b157602090601f01601f19160190565b90826000939282370152565b90929192610a95610a9082610a57565b610a43565b9381855260208501908284011161022a5761023c92610a74565b9080601f8301121561022a5781602061025293359101610a80565b9060808282031261022a57610adf818361053a565b92610aed826020850161053a565b92610afb836040830161053a565b92606082013567ffffffffffffffff811161022a576102529201610aaf565b3461022a57610286610b39610b30366004610aca565b929190916122ae565b6040519182918262ffffff909116815260200190565b3461022a57610286610986610b653660046108d5565b95949094939193612a65565b610252600060056103d7565b3461022a57610b8d36600461028a565b610286610480610b71565b909160608284031261022a57610252610bb1848461053a565b93610bbf816020860161054d565b9360400161053a565b3461022a576102866104c9610bde366004610b98565b91612a7c565b3461022a57610bf436600461028a565b610286610b39612b34565b3461022a57610286610274610c1536600461055a565b90612ba5565b610c286102526102529290565b61ffff1690565b6102526001610c1b565b610252610c2f565b3461022a57610c5136600461028a565b610286610c5c610c39565b6040519182918261ffff909116815260200190565b91909160a08184031261022a57610c8883826108c8565b92610c96816020840161053a565b92610ca4826040850161053a565b926106cb836060830161053a565b90610cc1610841610837845190565b9060005b818110610cd25750505090565b909192610cfd610878600192865180516001600160a01b031682526020908101519082015260400190565b929101610cc5565b602080825261025292910190610cb2565b3461022a57610286610d38610d2c366004610c71565b94939093929192613093565b60405191829182610d05565b3461022a57610d5436600461028a565b6102867f00000000000000000000000000000000000000000000000000000000000000006105ce565b60e08183031261022a57610d91828261053a565b92610d9f836020840161053a565b92610dad816040850161054d565b92610dbb826060830161054d565b92610252610dcc84608085016108c8565b93610dda8160a0860161054d565b9360c00161054d565b3461022a5761070d610df6366004610d7d565b9594909493919361315c565b919060408382031261022a5761025290610e1c818561053a565b9360200161053a565b6109f661025292610e3a6002936000946109cc565b6109cc565b3461022a576102866104c9610e55366004610e02565b90610e25565b3461022a57610e6b36600461028a565b6102867f00000000000000000000000000000000000000000000000000000000000000006105ce565b3461022a57610ea436600461028a565b6102867f00000000000000000000000000000000000000000000000000000000000000006105ce565b3461022a576102866104c9610ee3366004610b98565b9161316b565b610f02610efc6102529263ffffffff1690565b60e01b90565b6001600160e01b03191690565b80610f31610f23610f026301ffc9a7610ee9565b916001600160e01b03191690565b148015610f5d575b908115610f44575090565b9050610f59610f23610f02632c0198cc610ee9565b1490565b5080610f72610f23610f0263d505accf610ee9565b14610f39565b6102529081565b6102529054610f78565b610f936009610f7f565b6106ea600a610f7f565b610fa8919033613219565b600190565b634e487b7160e01b600052601160045260246000fd5b91908203918211610fd057565b610fad565b6102526102526102529290565b90610252610252610ff292610fd5565b9055565b90919061101661101161100a8360026109cc565b33906109cc565b610f7f565b60001981611023565b9190565b036110a6575b506110518261104b61103c8460016109cc565b9161104683610f7f565b610fc3565b90610fe2565b61106d8261104b6110638660016109cc565b9161045083610f7f565b91909161109e61109461108e6000805160206141ea833981519152936109c3565b936109c3565b936104cd60405190565b0390a3600190565b6110b46110c7918490610fc3565b6110c261100a8460026109cc565b610fe2565b38611029565b94939291908242116110e25761023c956110ff565b630407b05b60e31b6000908152600490fd5b610252913691610a80565b9461112a919461112461111b61112e9596899089899192613319565b928893926110f4565b91613442565b1590565b61113e5761023c92919091613219565b638baa579f60e01b6000908152600490fd5b9061023c95949392916110cd565b90611174959493929161116f613533565b6113cc565b9061023c61357e565b610252610200610a43565b61119061117d565b908160008152602001600081526020016000815260200160008152602001600081526020016000815260200160008152602001600081526020016000815260200160008152602001600081526020016000815260200160008152602001600081526020016000815260200160609052565b610252611188565b81810292918115918404141715610fd057565b634e487b7160e01b600052601260045260246000fd5b811561123c570490565b61121c565b6102526102526102529262ffffff1690565b91908201809211610fd057565b6102526103e8610fd5565b61051f6102526102529290565b6102529061126b565b80516001600160a01b03168252610252916102008101916101e0906020818101516001600160a01b0316908401526112be60408201516040850152565b6112cd60608201516060850152565b6112dc60808201516080850152565b6112eb60a082015160a0850152565b6112fa60c082015160c0850152565b61130960e082015160e0850152565b61131a610100820151610100850152565b61132b610120820151610120850152565b61133c610140820151610140850152565b61134d610160820151610160850152565b61135e610180820151610180850152565b61136f6101a08201516101a0850152565b6101c08181015162ffffff16908401525b0151906101e081840391015261041c565b602080825261025292910190611281565b6040513d6000823e3d90fd5b90815260608101939261023c9290916040916104ed905b6020830152565b50939061149a906113f06113de611201565b6001600160a01b039097166020880152565b6114136113fd6009610f7f565b611407600a610f7f565b60608901526040880152565b61142a61141e6135b3565b60a08901526080880152565b61144f61144761143b608089015190565b60a08901515b9061371a565b610140880152565b61147361146c611460608089015190565b60408901515b90610fc3565b60c0880152565b61149561148e61148460a089015190565b6060890151611466565b60e0880152565b613814565b926114a6604086015190565b6114b361101f6000610fd5565b036119025761158d61157f6114c86000610fd5565b60e08801518111156118af5761152f6115227f00000000000000000000000000000000000000000000000000000000000000007f00000000000000000000000000000000000000000000000000000000000000008a6138e8565b62ffffff166101c08a0152565b876115416101c082015162ffffff1690565b9161154d60c083015190565b9061155960e084015190565b909161157a611574606061156e604088015190565b96015190565b95611241565b613908565b610120880152610100870152565b6115b161159c61010087015190565b61025560408801916115ac835190565b611253565b6115d06115c061012087015190565b61025560608801916115ac835190565b6115f36115eb6115e1604088015190565b6060880151611441565b610160870152565b61162961162060008061161a61161461160e6101608c015190565b93610fd5565b91610fd5565b90613a15565b61018088015290565b9361163661018087015190565b61164361101f6000610fd5565b0361186d5761166a61166261165a61014089015190565b611466611260565b6101a0880152565b6116856116776000611278565b61167f611260565b90613c54565b6101a086015161169861101f6000610fd5565b1461185b576116bf6116b460208801516001600160a01b031690565b6101a088015161167f565b836116dd6116d061051f6000611278565b916001600160a01b031690565b036117ac575b50505050816101a0916117096116fd608061025296015190565b60a08401515b90613caa565b611791575b3361171a60c083015190565b60e08301519161172a8585015190565b9261173f60208601516001600160a01b031690565b926117896117766117707fa8137fff86647d8a402117b9c5dbda627f721d3773338fb9678c83e54ed39080956109c3565b956109c3565b9561178060405190565b938493846113ae565b0390a3015190565b6117a76117a061014083015190565b600b610fe2565b61170e565b6001600160a01b031685526117dc926117d79290916101e08701916117d0916110f4565b90526109c3565b6109c3565b9163c6cfc3fd81843b1561022a576118169461180b600080946117fe60405190565b9889958694859360e01b90565b835260048301611391565b03925af191821561185657610252936101a093611838575b82948294506116e3565b611850906000611848818361038f565b81019061028a565b3861182e565b6113a2565b633489be7560e21b6000908152600490fd5b6118aa61166261189d6118906118856101408b015190565b6101608b0151611466565b6101808a01515b90611209565b6101608901515b90611232565b611685565b6118fd6115227f00000000000000000000000000000000000000000000000000000000000000007f00000000000000000000000000000000000000000000000000000000000000008a6138e8565b61152f565b61158d61157f61192d61192361191960c08a015190565b60608a0151611897565b60408901516118a4565b6114c8565b6102529493929190600061115e565b4661195261101f6102526006610f7f565b03611961576102526007610f7f565b610252613dbe565b67ffffffffffffffff81116103b15760208091020190565b9061198e610a9083611969565b918252565b369037565b9061023c6119a583611981565b926020806119b38693611969565b9201910390611993565b634e487b7160e01b600052603260045260246000fd5b906119dc825190565b8110156119ed576020809102010190565b6119bd565b611a046119ff6002610fd5565b611998565b90611a4b7f0000000000000000000000000000000000000000000000000000000000000000611a3d84611a376000610fd5565b906119d3565b906001600160a01b03169052565b61023c7f0000000000000000000000000000000000000000000000000000000000000000611a3d84611a376001610fd5565b6102526040610a43565b611a8f611a7d565b6000808252602082015290565b610252611a87565b9061117497969594939291611ab7613533565b611cbe565b6102526101c0610a43565b60209081808080808080808080808080611adf611abc565b9e8f600081520160008152016000815201600081520160005b815201600081520160008152016000815201600081520160008152016000815201600081520160008152016060905250565b610252611ac7565b61025590610fd5565b611b6b61023c94611b64606094989795611b5d608086019a6000870190611b32565b6020850152565b6040830152565b0190611b32565b6104ed61023c94611b9b606094989795611b91608086019a6000870152565b6020850190611b32565b6040830190611b32565b610252610252610252926001600160801b031690565b80516001600160a01b03168252610252916101c08101916101a0906020818101516001600160a01b0316908401526040818101516001600160a01b0316908401526060818101516001600160a01b031690840152611c1e60808201516080850152565b611c2d60a082015160a0850152565b611c3c60c082015160c0850152565b611c4b60e082015160e0850152565b611c5c610100820151610100850152565b611c6d610120820151610120850152565b611c7e610140820151610140850152565b6101608181015162ffffff16908401526101808181015160ff16908401520151906101a081840391015261041c565b602080825261025292910190611bbb565b611d2f92969398979491611d019199611cf4611cd8611b2a565b809a92611cf460408301956101806020850194019060ff169052565b6001600160a01b03169052565b611d18611d0e6009610f7f565b61141e600a610f7f565b611495611d236135b3565b60e089015260c0880152565b60408501516001600160a01b0316611d6f6001600160a01b037f0000000000000000000000000000000000000000000000000000000000000000166116d0565b0361209757611dcf611dc27f00000000000000000000000000000000000000000000000000000000000000007f0000000000000000000000000000000000000000000000000000000000000000846138e8565b62ffffff16610160870152565b6001600160a01b037f0000000000000000000000000000000000000000000000000000000000000000166060860152611e21611e19611e0f60c088015190565b6080880151611466565b610100870152565b611e68611e5a611e3861016088015162ffffff1690565b610100880151608089015160a08a01515b91611e55600194611241565b613e3d565b610140880152610120870152565b611e87611e7761012087015190565b61025560e0880191611046835190565b33611e9461010087015190565b60009182611ea46101208a015190565b92611f03611ebc60208c01516001600160a01b031690565b94611ef0611eea7fd78ad95fa46c994b6551d0da85fc275fe613ce37657fb8d5e3d130840159d822966109c3565b966109c3565b96611efa60405190565b94859485611b72565b0390a35b60c0850151611f1f61101f6001600160801b03611ba5565b116120855760e0850151611f3c61101f6001600160801b03611ba5565b1161208557611f82611f5860608701516001600160a01b031690565b60208701516001600160a01b031661012088015190611f7c6101808a015160ff1690565b92613f4a565b83611f936116d061051f6000611278565b03611fef575b50505050611fe861012082611fbf611fb560c061023c96015190565b60e0830151611703565b611fe3611fd660608301516001600160a01b031690565b6001600160a01b03168752565b015190565b6020840152565b6001600160a01b03168452612013926117d79290916101a08601916117d0916110f4565b6314f7353982823b1561022a5761204c926120416000809461203460405190565b9687958694859360e01b90565b835260048301611cad565b03925af180156118565761023c92611fe8926101209261206f575b819450611f99565b61207f906000611848818361038f565b38612067565b631a93c68960e11b6000908152600490fd5b6120e5611dc27f00000000000000000000000000000000000000000000000000000000000000007f0000000000000000000000000000000000000000000000000000000000000000846138e8565b6001600160a01b037f000000000000000000000000000000000000000000000000000000000000000016606086015261212f611e1961212560e088015190565b60a0880151611466565b612163611e5a61214661016088015162ffffff1690565b610100880151608089015160a08a01515b91611e55600094611241565b61218261217261012087015190565b61025560c0880191611046835190565b33600061219161010088015190565b9161219e61012089015190565b926000926121fa6121b960208c01516001600160a01b031690565b946121e7611eea7fd78ad95fa46c994b6551d0da85fc275fe613ce37657fb8d5e3d130840159d822966109c3565b966121f160405190565b94859485611b3b565b0390a3611f07565b90610252969594939291612214611a9c565b611aa4565b62ffffff8116610223565b9050519061023c82612219565b9060208282031261022a5761025291612224565b919361229161025296946122816122a1949761227160a088019960008901906001600160a01b03169052565b6001600160a01b03166020870152565b6001600160a01b03166040850152565b6001600160a01b03166060830152565b608081840391015261041c565b90929161231a6020936122bf600090565b506123256122ef6117d77f00000000000000000000000000000000000000000000000000000000000000006109c3565b93634625a94d926122ff306109c3565b969891909161230d60405190565b998a988997889760e01b90565b875260048701612245565b03915afa9081156118565760009161233b575090565b610252915060203d811161235c575b612354818361038f565b810190612231565b503d61234a565b9061117497969594939291612376613533565b612494565b80516001600160a01b03168252610252916102008101916101e0906020818101516001600160a01b0316908401526040818101516001600160a01b0316908401526060818101516001600160a01b0316908401526123de60808201516080850152565b6123ed60a082015160a0850152565b6123fc60c082015160c0850152565b61240b60e082015160e0850152565b61241c610100820151610100850152565b61242d610120820151610120850152565b61243e610140820151610140850152565b61244f610160820151610160850152565b612460610180820151610180850152565b6101a08181015162ffffff16908401526101c08181015160ff1690840152611380565b60208082526102529291019061237b565b926124c8929897959396949650611cf46124ac611201565b809a92611cf460608301956101c06020850194019060ff169052565b6124d361141e6135b3565b6124ed61146c61101160016124e7306109c3565b906109cc565b61258e61251f61251761250160808a015190565b60a08a01515b6125116000610fd5565b91613a15565b60e08a015290565b9461255061254861253e61253460c08c015190565b60808c0151611897565b60e08b01516118a4565b6101008a0152565b61257661256e61253e61256460c08c015190565b60a08c0151611897565b6101208a0152565b611495612582306109c3565b60c08a01515b9061405a565b926125a360608801516001600160a01b031690565b6125d56001600160a01b037f0000000000000000000000000000000000000000000000000000000000000000166116d0565b036128f6576126356126287f00000000000000000000000000000000000000000000000000000000000000007f0000000000000000000000000000000000000000000000000000000000000000876138e8565b62ffffff166101a0890152565b6001600160a01b037f00000000000000000000000000000000000000000000000000000000000000001660408801526126bf6126b161267b6101a08a015162ffffff1690565b6101008a015161269c8b611466610100612696608084015190565b92015190565b611e498c61146661012061269660a084015190565b6101808a0152610160890152565b6126df6126ce61016089015190565b6102556101208a01916115ac835190565b61272e7f000000000000000000000000000000000000000000000000000000000000000061271760208a01516001600160a01b031690565b6101208a01515b90611f7c6101c08c015160ff1690565b61274561273d61012089015190565b610140890152565b61275a6127526000610fd5565b610100890152565b61277961276961012089015190565b61025560a08a0191611046835190565b8161278a6116d061051f6000611278565b03612878575b505050506127ac6127a2608085015190565b60a0850151611703565b612858575b60608201516001600160a01b03166127e86127ce61014085015190565b6113c56127d9611a7d565b6001600160a01b039094168452565b91336127f661010083015190565b9061280361012084015190565b612822602061281360c087015190565b9501516001600160a01b031690565b926128536117766117707fd175a80c109434bb89948928ab2475a6647c94244cb70002197896423c883363956109c3565b0390a3565b6128736117a0612869608085015190565b60a0850151611441565b6127b1565b6001600160a01b03909316865261289d926117d7926117d090916101e08901926110f4565b63c3ab3a9184823b1561022a576128c9926128be6000809461203460405190565b835260048301612483565b03925af18015611856576128e0575b808080612790565b6128f0906000611848818361038f565b386128d8565b6129446126287f00000000000000000000000000000000000000000000000000000000000000007f0000000000000000000000000000000000000000000000000000000000000000876138e8565b6001600160a01b037f00000000000000000000000000000000000000000000000000000000000000001660408801526129ba6126b161298a6101a08a015162ffffff1690565b6101208a01516129a58b611466610100612696608084015190565b6121578c61146661012061269660a084015190565b6129da6129c961016089015190565b6102556101008a01916115ac835190565b612a1d7f0000000000000000000000000000000000000000000000000000000000000000612a1260208a01516001600160a01b031690565b6101008a015161271e565b612a2c61273d61010089015190565b612a41612a396000610fd5565b610120890152565b612a60612a5061010089015190565b61025560808a0191611046835190565b612779565b90610252969594939291612a77611a9c565b612363565b61025292612a8a6009610f7f565b612b09612aff612a9a600a610f7f565b9385612ace6001600160a01b037f0000000000000000000000000000000000000000000000000000000000000000166116d0565b14958615612b0e577f00000000000000000000000000000000000000000000000000000000000000005b90916138e8565b9491929394611241565b6140a8565b7f0000000000000000000000000000000000000000000000000000000000000000612af8565b6123256020612b656117d77f00000000000000000000000000000000000000000000000000000000000000006109c3565b630a992e0c90612b8e612b77306109c3565b92612b8160405190565b9586948593849360e01b90565b83526001600160a01b031660048301526024820190565b90612bb88161104b61103c3360016109cc565b612bca8161104b6110638560016109cc565b906000805160206141ea83398151915261109e61109461108e336109c3565b90611174969594939291612bfb613533565b612d30565b610252610140610a43565b612c13612c00565b9060208080808080808080808b6000611af8565b610252612c0b565b80516001600160a01b0316825261025291610140810191610120906020818101516001600160a01b031690840152612c6c60408201516040850152565b612c7b60608201516060850152565b612c8a60808201516080850152565b612c9960a082015160a0850152565b612ca860c082015160c0850152565b612cb760e082015160e0850152565b6101008181015160ff169084015201519061012081840391015261041c565b602080825261025292910190612c2f565b60005b828110612cf657505050565b602090612d01611a9c565b8184015201612cea565b9061023c612d1883611981565b92602080612d268693611969565b9201910390612ce7565b5090959493919290612d5a90612d44612c27565b97611cf460208a01926101008b019060ff169052565b612d656114076135b3565b612d80612d7961101160016124e7306109c3565b6080880152565b612da3612d9b612d91604089015190565b6060890151612507565b60a089015290565b93612dd3612dcc612dc2612db860808b015190565b60408b0151611897565b60a08a01516118a4565b60c0890152565b612df8612df1612dc2612de760808b015190565b60608b0151611897565b60e0890152565b612e0e612e04306109c3565b6080890151612588565b612e5c7f0000000000000000000000000000000000000000000000000000000000000000612e4660208a01516001600160a01b031690565b60c08a01515b90611f7c6101008c015160ff1690565b612e9e7f0000000000000000000000000000000000000000000000000000000000000000612e9460208a01516001600160a01b031690565b60e08a0151612e4c565b612ec0612eac60c089015190565b61025560408a0191612ebc835190565b0390565b612ede612ece60e089015190565b61025560608a0191612ebc835190565b81612eef6116d061051f6000611278565b0361300b575b50505050612f11612f07604085015190565b6060850151611703565b612feb575b612f28612f236002610fd5565b612d0b565b91612f7b7f0000000000000000000000000000000000000000000000000000000000000000612f5b6127ce60c085015190565b611a378591600090612f75612f6f83610fd5565b856119d3565b52610fd5565b50612fc27f0000000000000000000000000000000000000000000000000000000000000000612fae6127ce60e085015190565b611a378591600190612f75612f6f83610fd5565b5033612fcf60c083015190565b90612fdb60e084015190565b6128226020612813608087015190565b6130066117a0612ffc604085015190565b6060850151611441565b612f16565b6117d06117d79361302e61302161303a97613814565b6001600160a01b03168a52565b916101208901926110f4565b63579c234e84823b1561022a576130669261305b6000809461203460405190565b835260048301612cd6565b03925af180156118565761307d575b808080612ef5565b61308d906000611848818361038f565b38613075565b6102529594939291906060612be9565b9594939291908242116110e25761023c966130e2565b6104ed61023c94611b646060949897956130d8608086019a6000870152565b60ff166020850152565b959094919360209360009392613112916130fe90888a8c613319565b929361310960405190565b948594856130b9565b838052039060015afa1561185657600051806131366001600160a01b0386166116d0565b0361113e5761314b6116d061051f6000611278565b1461113e5761023c92919091613219565b9061023c9695949392916130a3565b6131ef929061317a6009610f7f565b611e55612aff61318a600a610f7f565b93806131be6001600160a01b037f0000000000000000000000000000000000000000000000000000000000000000166116d0565b149586156131f3577f00000000000000000000000000000000000000000000000000000000000000005b91906138e8565b5090565b7f00000000000000000000000000000000000000000000000000000000000000006131e8565b909190613235826110c261322e8460026109cc565b86906109cc565b91909161285361109461108e7f8c5be1e5ebec7d5bd14f71427d1e84f3dd0314c0f7b2291e5b200ac8c7c3b925936109c3565b6102527f6e71edae12b1b97f4d1f60370fef10105fa2faae0126114a169c64845d6126c9610fd5565b6000198114610fd05760010190565b91946132ef6104ed929897956132e860a0966132d861023c9a6132c860c08a019e60008b0152565b6001600160a01b03166020890152565b6001600160a01b03166040870152565b6060850152565b6080830152565b602080939261331361198e6104509461190160f01b815260020190565b01918252565b613388906133796133b49461332c600090565b50613335611941565b9661333e613268565b93959161334c8760036109cc565b61336261335882610f7f565b9161104b83613291565b919261336d60405190565b978896602088016132a0565b6020820181038252038261038f565b61339a613393825190565b9160200190565b20916133796133a860405190565b938492602084016132f6565b6133bf613393825190565b2090565b610f02610efc6102529290565b610252631626ba7e6133c3565b9081526040602082018190526102529291019061041c565b9061198e610a9083610a57565b3d1561341c576134113d6133f5565b903d6000602084013e565b606090565b9050519061023c82610547565b9060208282031261022a5761025291613421565b90919061344f8284614146565b806134626001600160a01b0384166116d0565b14613502575b5090600461349a6000946133798695946134806133d0565b9261348a60405190565b95869460208601908152016133dd565b602081019051915afa6134ab613402565b90806134ec575b90816134bc575090565b6134d6915060206134cb825190565b81830101910161342e565b610f5961101f6102526134e76133d0565b610f02565b5080516134fc61101f6020610fd5565b146134b2565b9190916135156116d061051f6000611278565b03613521579038613468565b505050600190565b6102526002610fd5565b61353d6008610f7f565b61354b61101f610252613529565b146135625761023c61355b613529565b6008610fe2565b633ee5aeb560e01b6000908152600490fd5b6102526001610fd5565b61023c61355b613574565b6001600160a01b03909116815260408101929161023c916020905b01906001600160a01b03169052565b6135df6117d77f00000000000000000000000000000000000000000000000000000000000000006109c3565b602063f7888aec917f00000000000000000000000000000000000000000000000000000000000000009061362f613615306109c3565b9461363a61362260405190565b9687958694859460e01b90565b845260048401613589565b03915afa908115611856576000916136fc575b509061367b6117d77f00000000000000000000000000000000000000000000000000000000000000006109c3565b602063f7888aec917f00000000000000000000000000000000000000000000000000000000000000009061362f6136b1306109c3565b946136be61362260405190565b03915afa908115611856576000916136d4575090565b610252915060203d81116136f5575b6136ed818361038f565b81019061342e565b503d6136e3565b613714915060203d81116136f5576136ed818361038f565b3861364d565b8061372e61101f6001600160801b03611ba5565b11612085578161374761101f6001600160801b03611ba5565b11612085576102529161375991611209565b60b562010000828070ffffffffffffffffffffffffffffffffff1060071b81811c68ffffffffffffffffff1060061b1781811c64ffffffffff1060051b1781811c62ffffff1060041b17928360011c1b921c010260121c8082040160011c8082040160011c8082040160011c8082040160011c8082040160011c8082040160011c8082040160011c8080920410900390565b801515610223565b9050519061023c826137eb565b9060208282031261022a57610252916137f3565b806138256116d061051f6000611278565b0361382d5790565b80613837336116d0565b0361383f5790565b61388460206138706117d77f00000000000000000000000000000000000000000000000000000000000000006109c3565b63abcef55490612b8e3392612b8160405190565b03915afa80156118565761389e916000916138ae57501590565b1561025257506102526000611278565b61112a915060203d81116138cf575b6138c7818361038f565b810190613800565b503d6138bd565b61025260006133f5565b6102526138d6565b6102529290916138f66138e0565b926122ae565b610252620186a0610fd5565b9495949193906000966000928061392261101f6000610fd5565b1461398857858710613959575050505091611897613944926102529492610fc3565b6118a460026139546116146138fc565b611209565b6118979397985061394495509061397961397e9261398598969496611209565b611232565b9092610fc3565b91565b5050505050505090506000906102526139a2600093610fd5565b92610fd5565b9050519061023c8261052b565b9060208282031261022a57610252916139a8565b61025590610c1b565b91936139fc613a0392946139f56102529761227160a088019860008901906139c9565b6040850152565b6060830152565b60808183039101526000815260200190565b909290613a226000610f7f565b92613a6c6020613a546117d77f00000000000000000000000000000000000000000000000000000000000000006109c3565b634ccb20c090613a6360405190565b93849260e01b90565b825260049082905afa90811561185657600091613c26575b509081613a976116d061051f6000611278565b141595613aa4600b610f7f565b9384613ab361101f6000610fd5565b03613ac0575b5050505050565b8715613c0f5782613ad461101f6000610fd5565b14613bfe575b505080613ae761101f8590565b11613afb575b5050505b3880808080613ab9565b613b51906118a4613b12613b0d612b34565b611241565b94613b4b613b44613b31613b2a8b6118978689610fc3565b8990611209565b94613954613b3d6138fc565b8a90610fc3565b9187611209565b90611253565b9081613b6061101f6000610fd5565b14613aed576117d7816117d7613b7b93979596978590613c54565b63843e821890600190613b8d306109c3565b958490823b1561022a57600094613bc48692613bb994613bac60405190565b9b8c988997889660e01b90565b8652600486016139d2565b03925af192831561185657613bdf93613be8575b5090611253565b90388080613aed565b613bf8906000611848818361038f565b38613bd8565b613c08925061371a565b3880613ada565b5050505050613c216117a06000610fd5565b613af1565b613c47915060203d8111613c4d575b613c3f818361038f565b8101906139b5565b38613a84565b503d613c35565b90613c6d613c66826115ac6000610f7f565b6000610fe2565b613c7f8161104b6110638560016109cc565b613c896000611278565b91909161285361109461108e6000805160206141ea833981519152936109c3565b613cc081613cb984600a610fe2565b6009610fe2565b907fcf2aa50876cdfbb541206f89af0ee78d44a2abf8d328e37fa4917f982149848a91613cef61051660405190565b0390a1565b80546000939291613d076102fe836102c1565b916001811690811561035a5750600114613d2057505050565b613d339192939450600052602060002090565b916000925b818410613d455750500190565b805484840152602090930192600101613d38565b9061025291613cf4565b9061023c6103d092613d7460405190565b93848092613d59565b61025290613d63565b9095949261023c946139fc6135a492613db4608096613dad60a088019c6000890190611b32565b6020870152565b6040850190611b32565b7f8b73c3c69bb8fe3d512ecc4cf759cc79239f7b179b0ffacaa9a75d522b39400f6133b4613dec6004613d7d565b613df7613393825190565b20916133797fc89efdaa54c0f20c7adf612882df0950f5a951637e0307cdcb4c672f298b8bc646613e27306109c3565b91613e3160405190565b96879560208701613d86565b939290919060009483613e5361101f6000610fd5565b03613e675750505050506139856000610fd5565b83949550613e9090613e8a613e98939495611897613e836138fc565b8490610fc3565b95611209565b6118a46138fc565b9315613ebb57826115ac613eb26118a49361398596611209565b936118976138fc565b90826115ac613eb26118a49361398596611209565b613edd6102526102529290565b60ff1690565b613f1d61023c94611b64606094989795613f0d608086019a60008701906001600160a01b03169052565b6001600160a01b03166020850152565b019060ff169052565b6001600160a01b0391821681529116602082015260608101929161023c9160400152565b919280613f61613f5a6000613ed0565b9160ff1690565b03613ff05750613f936117d77f00000000000000000000000000000000000000000000000000000000000000006109c3565b63beabacc892919392813b1561022a576000613fc491613fcf8296613fb760405190565b9889978896879560e01b90565b855260048501613f26565b03925af1801561185657613fe05750565b61023c906000611848818361038f565b61401c6117d77f00000000000000000000000000000000000000000000000000000000000000006109c3565b90636cb568c193929490823b1561022a57600094613fcf869261404f9461404260405190565b998a988997889660e01b90565b865260048601613ee3565b61406c8261104b61103c8460016109cc565b61407d613c6683612ebc6000610f7f565b906140886000611278565b909161285361109461108e6000805160206141ea833981519152936109c3565b929091936140b4600090565b50826140c361101f6000610fd5565b036140d75750505050506102526000610fd5565b1561411d576141139261189761410a61025296946141046140fc6118a4968390611209565b6118976138fc565b95610fc3565b916110466138fc565b613b4b6001610fd5565b906141139261189761410a6118a4936141046140fc610252998390611209565b61025290610fd5565b90805161415661101f6041610fd5565b036141dd5760208101516060604083015192015160001a6141768361413d565b6141a261101f7f7fffffffffffffffffffffffffffffff5d576e7357a4501ddfe92f46681b20a0610fd5565b116141cf576141bb600093602095929361310960405190565b838052039060015afa156118565760005190565b505050506102526000611278565b5050610252600061127856feddf252ad1be2c89b69c2b068fc378daa952ba7f163c4a11628f55a4df523b3efa264697066735822122051095f2d6fbfd17415c3007361fd8f878d78b81afcd32490a096e9fa3eb0d97c64736f6c634300081a0033","linkReferences":{}},"methodIdentifiers":{"DOMAIN_SEPARATOR()":"3644e515","allowance(address,address)":"dd62ed3e","approve(address,uint256)":"095ea7b3","balanceOf(address)":"70a08231","burn(uint8,address,address,address,bytes)":"bfb7e74a","burnSingle(uint8,address,address,address,address,bytes)":"93a24904","decimals()":"313ce567","getAmountIn(address,uint256,address)":"a287c795","getAmountOut(address,uint256,address)":"ff9c8ac6","getAssets()":"67e4ac2c","getProtocolFee()":"a5a41031","getReserves()":"0902f1ac","getSwapFee(address,address,address,bytes)":"8b4c5470","invariantLast()":"07f293f7","master()":"ee97f7f3","mint(address,address,address,bytes)":"3627c888","name()":"06fdde03","nonces(address)":"7ecebe00","permit(address,address,uint256,uint256,uint8,bytes32,bytes32)":"d505accf","permit2(address,address,uint256,uint256,bytes)":"2c0198cc","poolType()":"b1dd61b6","reserve0()":"443cb4bc","reserve1()":"5a76f25e","supportsInterface(bytes4)":"01ffc9a7","swap(uint8,address,address,address,address,bytes)":"6b905f24","symbol()":"95d89b41","token0()":"0dfe1681","token1()":"d21220a7","totalSupply()":"18160ddd","transfer(address,uint256)":"a9059cbb","transferFrom(address,address,uint256)":"23b872dd","vault()":"fbfa77cf"},"id":98}